{
  "_format": "hh-sol-artifact-1",
  "contractName": "UNBadge",
  "sourceName": "contracts/UnicoinsV7.sol",
  "abi": [
    {
      "inputs": [],
      "stateMutability": "nonpayable",
      "type": "constructor"
    },
    {
      "anonymous": false,
      "inputs": [
        {
          "indexed": true,
          "internalType": "address",
          "name": "owner",
          "type": "address"
        },
        {
          "indexed": true,
          "internalType": "address",
          "name": "approved",
          "type": "address"
        },
        {
          "indexed": true,
          "internalType": "uint256",
          "name": "tokenId",
          "type": "uint256"
        }
      ],
      "name": "Approval",
      "type": "event"
    },
    {
      "anonymous": false,
      "inputs": [
        {
          "indexed": true,
          "internalType": "address",
          "name": "owner",
          "type": "address"
        },
        {
          "indexed": true,
          "internalType": "address",
          "name": "operator",
          "type": "address"
        },
        {
          "indexed": false,
          "internalType": "bool",
          "name": "approved",
          "type": "bool"
        }
      ],
      "name": "ApprovalForAll",
      "type": "event"
    },
    {
      "anonymous": false,
      "inputs": [
        {
          "indexed": true,
          "internalType": "address",
          "name": "previousOwner",
          "type": "address"
        },
        {
          "indexed": true,
          "internalType": "address",
          "name": "newOwner",
          "type": "address"
        }
      ],
      "name": "OwnershipTransferred",
      "type": "event"
    },
    {
      "anonymous": false,
      "inputs": [
        {
          "indexed": true,
          "internalType": "address",
          "name": "from",
          "type": "address"
        },
        {
          "indexed": true,
          "internalType": "address",
          "name": "to",
          "type": "address"
        },
        {
          "indexed": true,
          "internalType": "uint256",
          "name": "tokenId",
          "type": "uint256"
        }
      ],
      "name": "Transfer",
      "type": "event"
    },
    {
      "inputs": [
        {
          "internalType": "address",
          "name": "to",
          "type": "address"
        },
        {
          "internalType": "uint256",
          "name": "tokenId",
          "type": "uint256"
        }
      ],
      "name": "approve",
      "outputs": [],
      "stateMutability": "nonpayable",
      "type": "function"
    },
    {
      "inputs": [
        {
          "internalType": "uint256",
          "name": "",
          "type": "uint256"
        }
      ],
      "name": "badgeData",
      "outputs": [
        {
          "internalType": "uint256",
          "name": "hoursContributed",
          "type": "uint256"
        },
        {
          "internalType": "uint256",
          "name": "level",
          "type": "uint256"
        }
      ],
      "stateMutability": "view",
      "type": "function"
    },
    {
      "inputs": [
        {
          "internalType": "address",
          "name": "owner",
          "type": "address"
        }
      ],
      "name": "balanceOf",
      "outputs": [
        {
          "internalType": "uint256",
          "name": "",
          "type": "uint256"
        }
      ],
      "stateMutability": "view",
      "type": "function"
    },
    {
      "inputs": [
        {
          "internalType": "uint256",
          "name": "tokenId",
          "type": "uint256"
        }
      ],
      "name": "getApproved",
      "outputs": [
        {
          "internalType": "address",
          "name": "",
          "type": "address"
        }
      ],
      "stateMutability": "view",
      "type": "function"
    },
    {
      "inputs": [
        {
          "internalType": "uint256",
          "name": "tokenId",
          "type": "uint256"
        }
      ],
      "name": "getBadgeData",
      "outputs": [
        {
          "internalType": "uint256",
          "name": "hoursContributed",
          "type": "uint256"
        },
        {
          "internalType": "uint256",
          "name": "level",
          "type": "uint256"
        }
      ],
      "stateMutability": "view",
      "type": "function"
    },
    {
      "inputs": [
        {
          "internalType": "address",
          "name": "owner",
          "type": "address"
        },
        {
          "internalType": "address",
          "name": "operator",
          "type": "address"
        }
      ],
      "name": "isApprovedForAll",
      "outputs": [
        {
          "internalType": "bool",
          "name": "",
          "type": "bool"
        }
      ],
      "stateMutability": "view",
      "type": "function"
    },
    {
      "inputs": [
        {
          "internalType": "address",
          "name": "to",
          "type": "address"
        },
        {
          "internalType": "uint256",
          "name": "tokenId",
          "type": "uint256"
        },
        {
          "internalType": "uint256",
          "name": "hoursContributed",
          "type": "uint256"
        },
        {
          "internalType": "uint256",
          "name": "level",
          "type": "uint256"
        }
      ],
      "name": "mint",
      "outputs": [],
      "stateMutability": "nonpayable",
      "type": "function"
    },
    {
      "inputs": [],
      "name": "name",
      "outputs": [
        {
          "internalType": "string",
          "name": "",
          "type": "string"
        }
      ],
      "stateMutability": "view",
      "type": "function"
    },
    {
      "inputs": [],
      "name": "owner",
      "outputs": [
        {
          "internalType": "address",
          "name": "",
          "type": "address"
        }
      ],
      "stateMutability": "view",
      "type": "function"
    },
    {
      "inputs": [
        {
          "internalType": "uint256",
          "name": "tokenId",
          "type": "uint256"
        }
      ],
      "name": "ownerOf",
      "outputs": [
        {
          "internalType": "address",
          "name": "",
          "type": "address"
        }
      ],
      "stateMutability": "view",
      "type": "function"
    },
    {
      "inputs": [],
      "name": "renounceOwnership",
      "outputs": [],
      "stateMutability": "nonpayable",
      "type": "function"
    },
    {
      "inputs": [
        {
          "internalType": "address",
          "name": "from",
          "type": "address"
        },
        {
          "internalType": "address",
          "name": "to",
          "type": "address"
        },
        {
          "internalType": "uint256",
          "name": "tokenId",
          "type": "uint256"
        }
      ],
      "name": "safeTransferFrom",
      "outputs": [],
      "stateMutability": "nonpayable",
      "type": "function"
    },
    {
      "inputs": [
        {
          "internalType": "address",
          "name": "from",
          "type": "address"
        },
        {
          "internalType": "address",
          "name": "to",
          "type": "address"
        },
        {
          "internalType": "uint256",
          "name": "tokenId",
          "type": "uint256"
        },
        {
          "internalType": "bytes",
          "name": "data",
          "type": "bytes"
        }
      ],
      "name": "safeTransferFrom",
      "outputs": [],
      "stateMutability": "nonpayable",
      "type": "function"
    },
    {
      "inputs": [
        {
          "internalType": "address",
          "name": "operator",
          "type": "address"
        },
        {
          "internalType": "bool",
          "name": "approved",
          "type": "bool"
        }
      ],
      "name": "setApprovalForAll",
      "outputs": [],
      "stateMutability": "nonpayable",
      "type": "function"
    },
    {
      "inputs": [
        {
          "internalType": "bytes4",
          "name": "interfaceId",
          "type": "bytes4"
        }
      ],
      "name": "supportsInterface",
      "outputs": [
        {
          "internalType": "bool",
          "name": "",
          "type": "bool"
        }
      ],
      "stateMutability": "view",
      "type": "function"
    },
    {
      "inputs": [],
      "name": "symbol",
      "outputs": [
        {
          "internalType": "string",
          "name": "",
          "type": "string"
        }
      ],
      "stateMutability": "view",
      "type": "function"
    },
    {
      "inputs": [
        {
          "internalType": "uint256",
          "name": "tokenId",
          "type": "uint256"
        }
      ],
      "name": "tokenURI",
      "outputs": [
        {
          "internalType": "string",
          "name": "",
          "type": "string"
        }
      ],
      "stateMutability": "view",
      "type": "function"
    },
    {
      "inputs": [
        {
          "internalType": "address",
          "name": "from",
          "type": "address"
        },
        {
          "internalType": "address",
          "name": "to",
          "type": "address"
        },
        {
          "internalType": "uint256",
          "name": "tokenId",
          "type": "uint256"
        }
      ],
      "name": "transferFrom",
      "outputs": [],
      "stateMutability": "nonpayable",
      "type": "function"
    },
    {
      "inputs": [
        {
          "internalType": "address",
          "name": "newOwner",
          "type": "address"
        }
      ],
      "name": "transferOwnership",
      "outputs": [],
      "stateMutability": "nonpayable",
      "type": "function"
    }
  ],
  "bytecode": "0x60806040523480156200001157600080fd5b506040518060400160405280601581526020017f554e436f6c6c61626f726174696f6e20426164676500000000000000000000008152506040518060400160405280600381526020017f554e42000000000000000000000000000000000000000000000000000000000081525081600090816200008f919062000412565b508060019081620000a1919062000412565b505050620000c4620000b8620000ca60201b60201c565b620000d260201b60201c565b620004f9565b600033905090565b6000600660009054906101000a900473ffffffffffffffffffffffffffffffffffffffff16905081600660006101000a81548173ffffffffffffffffffffffffffffffffffffffff021916908373ffffffffffffffffffffffffffffffffffffffff1602179055508173ffffffffffffffffffffffffffffffffffffffff168173ffffffffffffffffffffffffffffffffffffffff167f8be0079c531659141344cd1fd0a4f28419497f9722a3daafe3b4186f6b6457e060405160405180910390a35050565b600081519050919050565b7f4e487b7100000000000000000000000000000000000000000000000000000000600052604160045260246000fd5b7f4e487b7100000000000000000000000000000000000000000000000000000000600052602260045260246000fd5b600060028204905060018216806200021a57607f821691505b60208210810362000230576200022f620001d2565b5b50919050565b60008190508160005260206000209050919050565b60006020601f8301049050919050565b600082821b905092915050565b6000600883026200029a7fffffffffffffffffffffffffffffffffffffffffffffffffffffffffffffffff826200025b565b620002a686836200025b565b95508019841693508086168417925050509392505050565b6000819050919050565b6000819050919050565b6000620002f3620002ed620002e784620002be565b620002c8565b620002be565b9050919050565b6000819050919050565b6200030f83620002d2565b620003276200031e82620002fa565b84845462000268565b825550505050565b600090565b6200033e6200032f565b6200034b81848462000304565b505050565b5b8181101562000373576200036760008262000334565b60018101905062000351565b5050565b601f821115620003c2576200038c8162000236565b62000397846200024b565b81016020851015620003a7578190505b620003bf620003b6856200024b565b83018262000350565b50505b505050565b600082821c905092915050565b6000620003e760001984600802620003c7565b1980831691505092915050565b6000620004028383620003d4565b9150826002028217905092915050565b6200041d8262000198565b67ffffffffffffffff811115620004395762000438620001a3565b5b62000445825462000201565b6200045282828562000377565b600060209050601f8311600181146200048a576000841562000475578287015190505b620004818582620003f4565b865550620004f1565b601f1984166200049a8662000236565b60005b82811015620004c4578489015182556001820191506020850194506020810190506200049d565b86831015620004e45784890151620004e0601f891682620003d4565b8355505b6001600288020188555050505b505050505050565b612a2580620005096000396000f3fe608060405234801561001057600080fd5b50600436106101215760003560e01c8063715018a6116100ad578063a683f32b11610071578063a683f32b14610307578063b88d4fde14610338578063c87b56dd14610354578063e985e9c514610384578063f2fde38b146103b457610121565b8063715018a6146102895780638da5cb5b1461029357806395d89b41146102b1578063a22cb465146102cf578063a647e8ec146102eb57610121565b806323b872dd116100f457806323b872dd146101c057806342842e0e146101dc5780636352211e146101f85780636e7b1c851461022857806370a082311461025957610121565b806301ffc9a71461012657806306fdde0314610156578063081812fc14610174578063095ea7b3146101a4575b600080fd5b610140600480360381019061013b9190611b27565b6103d0565b60405161014d9190611b6f565b60405180910390f35b61015e6104b2565b60405161016b9190611c1a565b60405180910390f35b61018e60048036038101906101899190611c72565b610544565b60405161019b9190611ce0565b60405180910390f35b6101be60048036038101906101b99190611d27565b61058a565b005b6101da60048036038101906101d59190611d67565b6106a1565b005b6101f660048036038101906101f19190611d67565b610701565b005b610212600480360381019061020d9190611c72565b610721565b60405161021f9190611ce0565b60405180910390f35b610242600480360381019061023d9190611c72565b6107a7565b604051610250929190611dc9565b60405180910390f35b610273600480360381019061026e9190611df2565b610829565b6040516102809190611e1f565b60405180910390f35b6102916108e0565b005b61029b6108f4565b6040516102a89190611ce0565b60405180910390f35b6102b961091e565b6040516102c69190611c1a565b60405180910390f35b6102e960048036038101906102e49190611e66565b6109b0565b005b61030560048036038101906103009190611ea6565b6109c6565b005b610321600480360381019061031c9190611c72565b610a1d565b60405161032f929190611dc9565b60405180910390f35b610352600480360381019061034d9190612042565b610a41565b005b61036e60048036038101906103699190611c72565b610aa3565b60405161037b9190611c1a565b60405180910390f35b61039e600480360381019061039991906120c5565b610b0b565b6040516103ab9190611b6f565b60405180910390f35b6103ce60048036038101906103c99190611df2565b610b9f565b005b60007f80ac58cd000000000000000000000000000000000000000000000000000000007bffffffffffffffffffffffffffffffffffffffffffffffffffffffff1916827bffffffffffffffffffffffffffffffffffffffffffffffffffffffff1916148061049b57507f5b5e139f000000000000000000000000000000000000000000000000000000007bffffffffffffffffffffffffffffffffffffffffffffffffffffffff1916827bffffffffffffffffffffffffffffffffffffffffffffffffffffffff1916145b806104ab57506104aa82610c22565b5b9050919050565b6060600080546104c190612134565b80601f01602080910402602001604051908101604052809291908181526020018280546104ed90612134565b801561053a5780601f1061050f5761010080835404028352916020019161053a565b820191906000526020600020905b81548152906001019060200180831161051d57829003601f168201915b5050505050905090565b600061054f82610c8c565b6004600083815260200190815260200160002060009054906101000a900473ffffffffffffffffffffffffffffffffffffffff169050919050565b600061059582610721565b90508073ffffffffffffffffffffffffffffffffffffffff168373ffffffffffffffffffffffffffffffffffffffff1603610605576040517f08c379a00000000000000000000000000000000000000000000000000000000081526004016105fc906121d7565b60405180910390fd5b8073ffffffffffffffffffffffffffffffffffffffff16610624610cd7565b73ffffffffffffffffffffffffffffffffffffffff16148061065357506106528161064d610cd7565b610b0b565b5b610692576040517f08c379a000000000000000000000000000000000000000000000000000000000815260040161068990612269565b60405180910390fd5b61069c8383610cdf565b505050565b6106b26106ac610cd7565b82610d98565b6106f1576040517f08c379a00000000000000000000000000000000000000000000000000000000081526004016106e8906122fb565b60405180910390fd5b6106fc838383610e2d565b505050565b61071c83838360405180602001604052806000815250610a41565b505050565b60008061072d83611126565b9050600073ffffffffffffffffffffffffffffffffffffffff168173ffffffffffffffffffffffffffffffffffffffff160361079e576040517f08c379a000000000000000000000000000000000000000000000000000000000815260040161079590612367565b60405180910390fd5b80915050919050565b6000806107b383611163565b6107f2576040517f08c379a00000000000000000000000000000000000000000000000000000000081526004016107e9906123d3565b60405180910390fd5b6007600084815260200190815260200160002060000154600760008581526020019081526020016000206001015491509150915091565b60008073ffffffffffffffffffffffffffffffffffffffff168273ffffffffffffffffffffffffffffffffffffffff1603610899576040517f08c379a000000000000000000000000000000000000000000000000000000000815260040161089090612465565b60405180910390fd5b600360008373ffffffffffffffffffffffffffffffffffffffff1673ffffffffffffffffffffffffffffffffffffffff168152602001908152602001600020549050919050565b6108e86111a4565b6108f26000611222565b565b6000600660009054906101000a900473ffffffffffffffffffffffffffffffffffffffff16905090565b60606001805461092d90612134565b80601f016020809104026020016040519081016040528092919081815260200182805461095990612134565b80156109a65780601f1061097b576101008083540402835291602001916109a6565b820191906000526020600020905b81548152906001019060200180831161098957829003601f168201915b5050505050905090565b6109c26109bb610cd7565b83836112e8565b5050565b6109ce6111a4565b6109d88484611454565b60405180604001604052808381526020018281525060076000858152602001908152602001600020600082015181600001556020820151816001015590505050505050565b60076020528060005260406000206000915090508060000154908060010154905082565b610a52610a4c610cd7565b83610d98565b610a91576040517f08c379a0000000000000000000000000000000000000000000000000000000008152600401610a88906122fb565b60405180910390fd5b610a9d84848484611671565b50505050565b6060610aae82610c8c565b6000610ab86116cd565b90506000815111610ad85760405180602001604052806000815250610b03565b80610ae2846116e4565b604051602001610af39291906124c1565b6040516020818303038152906040525b915050919050565b6000600560008473ffffffffffffffffffffffffffffffffffffffff1673ffffffffffffffffffffffffffffffffffffffff16815260200190815260200160002060008373ffffffffffffffffffffffffffffffffffffffff1673ffffffffffffffffffffffffffffffffffffffff16815260200190815260200160002060009054906101000a900460ff16905092915050565b610ba76111a4565b600073ffffffffffffffffffffffffffffffffffffffff168173ffffffffffffffffffffffffffffffffffffffff1603610c16576040517f08c379a0000000000000000000000000000000000000000000000000000000008152600401610c0d90612557565b60405180910390fd5b610c1f81611222565b50565b60007f01ffc9a7000000000000000000000000000000000000000000000000000000007bffffffffffffffffffffffffffffffffffffffffffffffffffffffff1916827bffffffffffffffffffffffffffffffffffffffffffffffffffffffff1916149050919050565b610c9581611163565b610cd4576040517f08c379a0000000000000000000000000000000000000000000000000000000008152600401610ccb90612367565b60405180910390fd5b50565b600033905090565b816004600083815260200190815260200160002060006101000a81548173ffffffffffffffffffffffffffffffffffffffff021916908373ffffffffffffffffffffffffffffffffffffffff160217905550808273ffffffffffffffffffffffffffffffffffffffff16610d5283610721565b73ffffffffffffffffffffffffffffffffffffffff167f8c5be1e5ebec7d5bd14f71427d1e84f3dd0314c0f7b2291e5b200ac8c7c3b92560405160405180910390a45050565b600080610da483610721565b90508073ffffffffffffffffffffffffffffffffffffffff168473ffffffffffffffffffffffffffffffffffffffff161480610de65750610de58185610b0b565b5b80610e2457508373ffffffffffffffffffffffffffffffffffffffff16610e0c84610544565b73ffffffffffffffffffffffffffffffffffffffff16145b91505092915050565b8273ffffffffffffffffffffffffffffffffffffffff16610e4d82610721565b73ffffffffffffffffffffffffffffffffffffffff1614610ea3576040517f08c379a0000000000000000000000000000000000000000000000000000000008152600401610e9a906125e9565b60405180910390fd5b600073ffffffffffffffffffffffffffffffffffffffff168273ffffffffffffffffffffffffffffffffffffffff1603610f12576040517f08c379a0000000000000000000000000000000000000000000000000000000008152600401610f099061267b565b60405180910390fd5b610f1f83838360016117b2565b8273ffffffffffffffffffffffffffffffffffffffff16610f3f82610721565b73ffffffffffffffffffffffffffffffffffffffff1614610f95576040517f08c379a0000000000000000000000000000000000000000000000000000000008152600401610f8c906125e9565b60405180910390fd5b6004600082815260200190815260200160002060006101000a81549073ffffffffffffffffffffffffffffffffffffffff02191690556001600360008573ffffffffffffffffffffffffffffffffffffffff1673ffffffffffffffffffffffffffffffffffffffff168152602001908152602001600020600082825403925050819055506001600360008473ffffffffffffffffffffffffffffffffffffffff1673ffffffffffffffffffffffffffffffffffffffff16815260200190815260200160002060008282540192505081905550816002600083815260200190815260200160002060006101000a81548173ffffffffffffffffffffffffffffffffffffffff021916908373ffffffffffffffffffffffffffffffffffffffff160217905550808273ffffffffffffffffffffffffffffffffffffffff168473ffffffffffffffffffffffffffffffffffffffff167fddf252ad1be2c89b69c2b068fc378daa952ba7f163c4a11628f55a4df523b3ef60405160405180910390a461112183838360016117b8565b505050565b60006002600083815260200190815260200160002060009054906101000a900473ffffffffffffffffffffffffffffffffffffffff169050919050565b60008073ffffffffffffffffffffffffffffffffffffffff1661118583611126565b73ffffffffffffffffffffffffffffffffffffffff1614159050919050565b6111ac610cd7565b73ffffffffffffffffffffffffffffffffffffffff166111ca6108f4565b73ffffffffffffffffffffffffffffffffffffffff1614611220576040517f08c379a0000000000000000000000000000000000000000000000000000000008152600401611217906126e7565b60405180910390fd5b565b6000600660009054906101000a900473ffffffffffffffffffffffffffffffffffffffff16905081600660006101000a81548173ffffffffffffffffffffffffffffffffffffffff021916908373ffffffffffffffffffffffffffffffffffffffff1602179055508173ffffffffffffffffffffffffffffffffffffffff168173ffffffffffffffffffffffffffffffffffffffff167f8be0079c531659141344cd1fd0a4f28419497f9722a3daafe3b4186f6b6457e060405160405180910390a35050565b8173ffffffffffffffffffffffffffffffffffffffff168373ffffffffffffffffffffffffffffffffffffffff1603611356576040517f08c379a000000000000000000000000000000000000000000000000000000000815260040161134d90612753565b60405180910390fd5b80600560008573ffffffffffffffffffffffffffffffffffffffff1673ffffffffffffffffffffffffffffffffffffffff16815260200190815260200160002060008473ffffffffffffffffffffffffffffffffffffffff1673ffffffffffffffffffffffffffffffffffffffff16815260200190815260200160002060006101000a81548160ff0219169083151502179055508173ffffffffffffffffffffffffffffffffffffffff168373ffffffffffffffffffffffffffffffffffffffff167f17307eab39ab6107e8899845ad3d59bd9653f200f220920489ca2b5937696c31836040516114479190611b6f565b60405180910390a3505050565b600073ffffffffffffffffffffffffffffffffffffffff168273ffffffffffffffffffffffffffffffffffffffff16036114c3576040517f08c379a00000000000000000000000000000000000000000000000000000000081526004016114ba906127bf565b60405180910390fd5b6114cc81611163565b1561150c576040517f08c379a00000000000000000000000000000000000000000000000000000000081526004016115039061282b565b60405180910390fd5b61151a6000838360016117b2565b61152381611163565b15611563576040517f08c379a000000000000000000000000000000000000000000000000000000000815260040161155a9061282b565b60405180910390fd5b6001600360008473ffffffffffffffffffffffffffffffffffffffff1673ffffffffffffffffffffffffffffffffffffffff16815260200190815260200160002060008282540192505081905550816002600083815260200190815260200160002060006101000a81548173ffffffffffffffffffffffffffffffffffffffff021916908373ffffffffffffffffffffffffffffffffffffffff160217905550808273ffffffffffffffffffffffffffffffffffffffff16600073ffffffffffffffffffffffffffffffffffffffff167fddf252ad1be2c89b69c2b068fc378daa952ba7f163c4a11628f55a4df523b3ef60405160405180910390a461166d6000838360016117b8565b5050565b61167c848484610e2d565b611688848484846117be565b6116c7576040517f08c379a00000000000000000000000000000000000000000000000000000000081526004016116be906128bd565b60405180910390fd5b50505050565b606060405180602001604052806000815250905090565b6060600060016116f384611945565b01905060008167ffffffffffffffff81111561171257611711611f17565b5b6040519080825280601f01601f1916602001820160405280156117445781602001600182028036833780820191505090505b509050600082602001820190505b6001156117a7578080600190039150507f3031323334353637383961626364656600000000000000000000000000000000600a86061a8153600a858161179b5761179a6128dd565b5b04945060008503611752575b819350505050919050565b50505050565b50505050565b60006117df8473ffffffffffffffffffffffffffffffffffffffff16611a98565b15611938578373ffffffffffffffffffffffffffffffffffffffff1663150b7a02611808610cd7565b8786866040518563ffffffff1660e01b815260040161182a9493929190612961565b6020604051808303816000875af192505050801561186657506040513d601f19601f8201168201806040525081019061186391906129c2565b60015b6118e8573d8060008114611896576040519150601f19603f3d011682016040523d82523d6000602084013e61189b565b606091505b5060008151036118e0576040517f08c379a00000000000000000000000000000000000000000000000000000000081526004016118d7906128bd565b60405180910390fd5b805181602001fd5b63150b7a0260e01b7bffffffffffffffffffffffffffffffffffffffffffffffffffffffff1916817bffffffffffffffffffffffffffffffffffffffffffffffffffffffff19161491505061193d565b600190505b949350505050565b600080600090507a184f03e93ff9f4daa797ed6e38ed64bf6a1f01000000000000000083106119a3577a184f03e93ff9f4daa797ed6e38ed64bf6a1f0100000000000000008381611999576119986128dd565b5b0492506040810190505b6d04ee2d6d415b85acef810000000083106119e0576d04ee2d6d415b85acef810000000083816119d6576119d56128dd565b5b0492506020810190505b662386f26fc100008310611a0f57662386f26fc100008381611a0557611a046128dd565b5b0492506010810190505b6305f5e1008310611a38576305f5e1008381611a2e57611a2d6128dd565b5b0492506008810190505b6127108310611a5d576127108381611a5357611a526128dd565b5b0492506004810190505b60648310611a805760648381611a7657611a756128dd565b5b0492506002810190505b600a8310611a8f576001810190505b80915050919050565b6000808273ffffffffffffffffffffffffffffffffffffffff163b119050919050565b6000604051905090565b600080fd5b600080fd5b60007fffffffff0000000000000000000000000000000000000000000000000000000082169050919050565b611b0481611acf565b8114611b0f57600080fd5b50565b600081359050611b2181611afb565b92915050565b600060208284031215611b3d57611b3c611ac5565b5b6000611b4b84828501611b12565b91505092915050565b60008115159050919050565b611b6981611b54565b82525050565b6000602082019050611b846000830184611b60565b92915050565b600081519050919050565b600082825260208201905092915050565b60005b83811015611bc4578082015181840152602081019050611ba9565b60008484015250505050565b6000601f19601f8301169050919050565b6000611bec82611b8a565b611bf68185611b95565b9350611c06818560208601611ba6565b611c0f81611bd0565b840191505092915050565b60006020820190508181036000830152611c348184611be1565b905092915050565b6000819050919050565b611c4f81611c3c565b8114611c5a57600080fd5b50565b600081359050611c6c81611c46565b92915050565b600060208284031215611c8857611c87611ac5565b5b6000611c9684828501611c5d565b91505092915050565b600073ffffffffffffffffffffffffffffffffffffffff82169050919050565b6000611cca82611c9f565b9050919050565b611cda81611cbf565b82525050565b6000602082019050611cf56000830184611cd1565b92915050565b611d0481611cbf565b8114611d0f57600080fd5b50565b600081359050611d2181611cfb565b92915050565b60008060408385031215611d3e57611d3d611ac5565b5b6000611d4c85828601611d12565b9250506020611d5d85828601611c5d565b9150509250929050565b600080600060608486031215611d8057611d7f611ac5565b5b6000611d8e86828701611d12565b9350506020611d9f86828701611d12565b9250506040611db086828701611c5d565b9150509250925092565b611dc381611c3c565b82525050565b6000604082019050611dde6000830185611dba565b611deb6020830184611dba565b9392505050565b600060208284031215611e0857611e07611ac5565b5b6000611e1684828501611d12565b91505092915050565b6000602082019050611e346000830184611dba565b92915050565b611e4381611b54565b8114611e4e57600080fd5b50565b600081359050611e6081611e3a565b92915050565b60008060408385031215611e7d57611e7c611ac5565b5b6000611e8b85828601611d12565b9250506020611e9c85828601611e51565b9150509250929050565b60008060008060808587031215611ec057611ebf611ac5565b5b6000611ece87828801611d12565b9450506020611edf87828801611c5d565b9350506040611ef087828801611c5d565b9250506060611f0187828801611c5d565b91505092959194509250565b600080fd5b600080fd5b7f4e487b7100000000000000000000000000000000000000000000000000000000600052604160045260246000fd5b611f4f82611bd0565b810181811067ffffffffffffffff82111715611f6e57611f6d611f17565b5b80604052505050565b6000611f81611abb565b9050611f8d8282611f46565b919050565b600067ffffffffffffffff821115611fad57611fac611f17565b5b611fb682611bd0565b9050602081019050919050565b82818337600083830152505050565b6000611fe5611fe084611f92565b611f77565b90508281526020810184848401111561200157612000611f12565b5b61200c848285611fc3565b509392505050565b600082601f83011261202957612028611f0d565b5b8135612039848260208601611fd2565b91505092915050565b6000806000806080858703121561205c5761205b611ac5565b5b600061206a87828801611d12565b945050602061207b87828801611d12565b935050604061208c87828801611c5d565b925050606085013567ffffffffffffffff8111156120ad576120ac611aca565b5b6120b987828801612014565b91505092959194509250565b600080604083850312156120dc576120db611ac5565b5b60006120ea85828601611d12565b92505060206120fb85828601611d12565b9150509250929050565b7f4e487b7100000000000000000000000000000000000000000000000000000000600052602260045260246000fd5b6000600282049050600182168061214c57607f821691505b60208210810361215f5761215e612105565b5b50919050565b7f4552433732313a20617070726f76616c20746f2063757272656e74206f776e6560008201527f7200000000000000000000000000000000000000000000000000000000000000602082015250565b60006121c1602183611b95565b91506121cc82612165565b604082019050919050565b600060208201905081810360008301526121f0816121b4565b9050919050565b7f4552433732313a20617070726f76652063616c6c6572206973206e6f7420746f60008201527f6b656e206f776e6572206f7220617070726f76656420666f7220616c6c000000602082015250565b6000612253603d83611b95565b915061225e826121f7565b604082019050919050565b6000602082019050818103600083015261228281612246565b9050919050565b7f4552433732313a2063616c6c6572206973206e6f7420746f6b656e206f776e6560008201527f72206f7220617070726f76656400000000000000000000000000000000000000602082015250565b60006122e5602d83611b95565b91506122f082612289565b604082019050919050565b60006020820190508181036000830152612314816122d8565b9050919050565b7f4552433732313a20696e76616c696420746f6b656e2049440000000000000000600082015250565b6000612351601883611b95565b915061235c8261231b565b602082019050919050565b6000602082019050818103600083015261238081612344565b9050919050565b7f546f6b656e20494420646f6573206e6f74206578697374000000000000000000600082015250565b60006123bd601783611b95565b91506123c882612387565b602082019050919050565b600060208201905081810360008301526123ec816123b0565b9050919050565b7f4552433732313a2061646472657373207a65726f206973206e6f74206120766160008201527f6c6964206f776e65720000000000000000000000000000000000000000000000602082015250565b600061244f602983611b95565b915061245a826123f3565b604082019050919050565b6000602082019050818103600083015261247e81612442565b9050919050565b600081905092915050565b600061249b82611b8a565b6124a58185612485565b93506124b5818560208601611ba6565b80840191505092915050565b60006124cd8285612490565b91506124d98284612490565b91508190509392505050565b7f4f776e61626c653a206e6577206f776e657220697320746865207a65726f206160008201527f6464726573730000000000000000000000000000000000000000000000000000602082015250565b6000612541602683611b95565b915061254c826124e5565b604082019050919050565b6000602082019050818103600083015261257081612534565b9050919050565b7f4552433732313a207472616e736665722066726f6d20696e636f72726563742060008201527f6f776e6572000000000000000000000000000000000000000000000000000000602082015250565b60006125d3602583611b95565b91506125de82612577565b604082019050919050565b60006020820190508181036000830152612602816125c6565b9050919050565b7f4552433732313a207472616e7366657220746f20746865207a65726f2061646460008201527f7265737300000000000000000000000000000000000000000000000000000000602082015250565b6000612665602483611b95565b915061267082612609565b604082019050919050565b6000602082019050818103600083015261269481612658565b9050919050565b7f4f776e61626c653a2063616c6c6572206973206e6f7420746865206f776e6572600082015250565b60006126d1602083611b95565b91506126dc8261269b565b602082019050919050565b60006020820190508181036000830152612700816126c4565b9050919050565b7f4552433732313a20617070726f766520746f2063616c6c657200000000000000600082015250565b600061273d601983611b95565b915061274882612707565b602082019050919050565b6000602082019050818103600083015261276c81612730565b9050919050565b7f4552433732313a206d696e7420746f20746865207a65726f2061646472657373600082015250565b60006127a9602083611b95565b91506127b482612773565b602082019050919050565b600060208201905081810360008301526127d88161279c565b9050919050565b7f4552433732313a20746f6b656e20616c7265616479206d696e74656400000000600082015250565b6000612815601c83611b95565b9150612820826127df565b602082019050919050565b6000602082019050818103600083015261284481612808565b9050919050565b7f4552433732313a207472616e7366657220746f206e6f6e20455243373231526560008201527f63656976657220696d706c656d656e7465720000000000000000000000000000602082015250565b60006128a7603283611b95565b91506128b28261284b565b604082019050919050565b600060208201905081810360008301526128d68161289a565b9050919050565b7f4e487b7100000000000000000000000000000000000000000000000000000000600052601260045260246000fd5b600081519050919050565b600082825260208201905092915050565b60006129338261290c565b61293d8185612917565b935061294d818560208601611ba6565b61295681611bd0565b840191505092915050565b60006080820190506129766000830187611cd1565b6129836020830186611cd1565b6129906040830185611dba565b81810360608301526129a28184612928565b905095945050505050565b6000815190506129bc81611afb565b92915050565b6000602082840312156129d8576129d7611ac5565b5b60006129e6848285016129ad565b9150509291505056fea26469706673582212205418310156b78da313966778e9542dae069a761618bb8bf5a8e82c03f76f4a3464736f6c63430008110033",
  "linkReferences": {},
  "deployedLinkReferences": {}
}