{
  "_format": "hh-sol-artifact-1",
  "contractName": "UNCollaboration",
  "sourceName": "contracts/UnicoinsV7.sol",
  "abi": [
    {
      "inputs": [
        {
          "internalType": "address",
          "name": "badgeContractAddress",
          "type": "address"
        }
      ],
      "stateMutability": "nonpayable",
      "type": "constructor"
    },
    {
      "anonymous": false,
      "inputs": [
        {
          "indexed": true,
          "internalType": "address",
          "name": "owner",
          "type": "address"
        },
        {
          "indexed": true,
          "internalType": "address",
          "name": "spender",
          "type": "address"
        },
        {
          "indexed": false,
          "internalType": "uint256",
          "name": "value",
          "type": "uint256"
        }
      ],
      "name": "Approval",
      "type": "event"
    },
    {
      "anonymous": false,
      "inputs": [
        {
          "indexed": true,
          "internalType": "address",
          "name": "previousOwner",
          "type": "address"
        },
        {
          "indexed": true,
          "internalType": "address",
          "name": "newOwner",
          "type": "address"
        }
      ],
      "name": "OwnershipTransferred",
      "type": "event"
    },
    {
      "anonymous": false,
      "inputs": [
        {
          "indexed": true,
          "internalType": "uint256",
          "name": "proposalId",
          "type": "uint256"
        },
        {
          "indexed": false,
          "internalType": "bool",
          "name": "deliverablesMet",
          "type": "bool"
        }
      ],
      "name": "ProjectDeliverablesUpdated",
      "type": "event"
    },
    {
      "anonymous": false,
      "inputs": [
        {
          "indexed": true,
          "internalType": "address",
          "name": "projectManager",
          "type": "address"
        }
      ],
      "name": "ProjectManagerAdded",
      "type": "event"
    },
    {
      "anonymous": false,
      "inputs": [
        {
          "indexed": true,
          "internalType": "uint256",
          "name": "proposalId",
          "type": "uint256"
        },
        {
          "indexed": true,
          "internalType": "address",
          "name": "proposer",
          "type": "address"
        },
        {
          "indexed": false,
          "internalType": "string",
          "name": "projectDescription",
          "type": "string"
        },
        {
          "indexed": false,
          "internalType": "uint256",
          "name": "stakedAmount",
          "type": "uint256"
        }
      ],
      "name": "ProjectProposalAdded",
      "type": "event"
    },
    {
      "anonymous": false,
      "inputs": [
        {
          "indexed": true,
          "internalType": "uint256",
          "name": "proposalId",
          "type": "uint256"
        },
        {
          "indexed": false,
          "internalType": "bool",
          "name": "validated",
          "type": "bool"
        }
      ],
      "name": "ProjectProposalValidated",
      "type": "event"
    },
    {
      "anonymous": false,
      "inputs": [
        {
          "indexed": true,
          "internalType": "uint256",
          "name": "proposalId",
          "type": "uint256"
        },
        {
          "indexed": true,
          "internalType": "address",
          "name": "proposer",
          "type": "address"
        },
        {
          "indexed": false,
          "internalType": "uint256",
          "name": "stakedAmount",
          "type": "uint256"
        }
      ],
      "name": "ProjectStakeForfeited",
      "type": "event"
    },
    {
      "anonymous": false,
      "inputs": [
        {
          "indexed": false,
          "internalType": "uint256",
          "name": "newPercentage",
          "type": "uint256"
        }
      ],
      "name": "StakingFeePercentageChanged",
      "type": "event"
    },
    {
      "anonymous": false,
      "inputs": [
        {
          "indexed": true,
          "internalType": "uint256",
          "name": "taskId",
          "type": "uint256"
        },
        {
          "indexed": true,
          "internalType": "address",
          "name": "projectManager",
          "type": "address"
        },
        {
          "indexed": false,
          "internalType": "string",
          "name": "taskDescription",
          "type": "string"
        },
        {
          "indexed": false,
          "internalType": "uint256",
          "name": "reward",
          "type": "uint256"
        },
        {
          "indexed": false,
          "internalType": "address",
          "name": "volunteer",
          "type": "address"
        }
      ],
      "name": "TaskAdded",
      "type": "event"
    },
    {
      "anonymous": false,
      "inputs": [
        {
          "indexed": true,
          "internalType": "uint256",
          "name": "taskId",
          "type": "uint256"
        },
        {
          "indexed": true,
          "internalType": "address",
          "name": "volunteer",
          "type": "address"
        },
        {
          "indexed": false,
          "internalType": "uint256",
          "name": "reward",
          "type": "uint256"
        }
      ],
      "name": "TaskCompleted",
      "type": "event"
    },
    {
      "anonymous": false,
      "inputs": [
        {
          "indexed": true,
          "internalType": "address",
          "name": "receiver",
          "type": "address"
        },
        {
          "indexed": false,
          "internalType": "uint256",
          "name": "amount",
          "type": "uint256"
        }
      ],
      "name": "TokensMinted",
      "type": "event"
    },
    {
      "anonymous": false,
      "inputs": [
        {
          "indexed": true,
          "internalType": "address",
          "name": "from",
          "type": "address"
        },
        {
          "indexed": true,
          "internalType": "address",
          "name": "to",
          "type": "address"
        },
        {
          "indexed": false,
          "internalType": "uint256",
          "name": "value",
          "type": "uint256"
        }
      ],
      "name": "Transfer",
      "type": "event"
    },
    {
      "anonymous": false,
      "inputs": [
        {
          "indexed": true,
          "internalType": "address",
          "name": "volunteer",
          "type": "address"
        }
      ],
      "name": "VolunteerAdded",
      "type": "event"
    },
    {
      "inputs": [],
      "name": "TOTAL_UNICOINS",
      "outputs": [
        {
          "internalType": "uint256",
          "name": "",
          "type": "uint256"
        }
      ],
      "stateMutability": "view",
      "type": "function"
    },
    {
      "inputs": [
        {
          "internalType": "address",
          "name": "projectManager",
          "type": "address"
        }
      ],
      "name": "addProjectManager",
      "outputs": [],
      "stateMutability": "nonpayable",
      "type": "function"
    },
    {
      "inputs": [
        {
          "internalType": "string",
          "name": "taskDescription",
          "type": "string"
        },
        {
          "internalType": "uint256",
          "name": "reward",
          "type": "uint256"
        },
        {
          "internalType": "address",
          "name": "volunteer",
          "type": "address"
        }
      ],
      "name": "addTask",
      "outputs": [],
      "stateMutability": "nonpayable",
      "type": "function"
    },
    {
      "inputs": [
        {
          "internalType": "address",
          "name": "volunteer",
          "type": "address"
        }
      ],
      "name": "addVolunteer",
      "outputs": [],
      "stateMutability": "nonpayable",
      "type": "function"
    },
    {
      "inputs": [
        {
          "internalType": "address",
          "name": "owner",
          "type": "address"
        },
        {
          "internalType": "address",
          "name": "spender",
          "type": "address"
        }
      ],
      "name": "allowance",
      "outputs": [
        {
          "internalType": "uint256",
          "name": "",
          "type": "uint256"
        }
      ],
      "stateMutability": "view",
      "type": "function"
    },
    {
      "inputs": [
        {
          "internalType": "address",
          "name": "spender",
          "type": "address"
        },
        {
          "internalType": "uint256",
          "name": "amount",
          "type": "uint256"
        }
      ],
      "name": "approve",
      "outputs": [
        {
          "internalType": "bool",
          "name": "",
          "type": "bool"
        }
      ],
      "stateMutability": "nonpayable",
      "type": "function"
    },
    {
      "inputs": [
        {
          "internalType": "address",
          "name": "volunteer",
          "type": "address"
        },
        {
          "internalType": "uint256",
          "name": "tokenId",
          "type": "uint256"
        },
        {
          "internalType": "string",
          "name": "badgeDescription",
          "type": "string"
        },
        {
          "internalType": "uint256",
          "name": "hoursContributed",
          "type": "uint256"
        }
      ],
      "name": "awardBadge",
      "outputs": [],
      "stateMutability": "nonpayable",
      "type": "function"
    },
    {
      "inputs": [],
      "name": "badgeContract",
      "outputs": [
        {
          "internalType": "contract UNBadge",
          "name": "",
          "type": "address"
        }
      ],
      "stateMutability": "view",
      "type": "function"
    },
    {
      "inputs": [
        {
          "internalType": "address",
          "name": "account",
          "type": "address"
        }
      ],
      "name": "balanceOf",
      "outputs": [
        {
          "internalType": "uint256",
          "name": "",
          "type": "uint256"
        }
      ],
      "stateMutability": "view",
      "type": "function"
    },
    {
      "inputs": [
        {
          "internalType": "uint256",
          "name": "taskIndex",
          "type": "uint256"
        }
      ],
      "name": "completeTask",
      "outputs": [],
      "stateMutability": "nonpayable",
      "type": "function"
    },
    {
      "inputs": [],
      "name": "decimals",
      "outputs": [
        {
          "internalType": "uint8",
          "name": "",
          "type": "uint8"
        }
      ],
      "stateMutability": "view",
      "type": "function"
    },
    {
      "inputs": [
        {
          "internalType": "address",
          "name": "spender",
          "type": "address"
        },
        {
          "internalType": "uint256",
          "name": "subtractedValue",
          "type": "uint256"
        }
      ],
      "name": "decreaseAllowance",
      "outputs": [
        {
          "internalType": "bool",
          "name": "",
          "type": "bool"
        }
      ],
      "stateMutability": "nonpayable",
      "type": "function"
    },
    {
      "inputs": [
        {
          "internalType": "address",
          "name": "volunteer",
          "type": "address"
        },
        {
          "internalType": "address",
          "name": "projectManager",
          "type": "address"
        }
      ],
      "name": "getBadge",
      "outputs": [
        {
          "internalType": "string",
          "name": "",
          "type": "string"
        },
        {
          "internalType": "uint256",
          "name": "",
          "type": "uint256"
        }
      ],
      "stateMutability": "view",
      "type": "function"
    },
    {
      "inputs": [
        {
          "internalType": "address",
          "name": "spender",
          "type": "address"
        },
        {
          "internalType": "uint256",
          "name": "addedValue",
          "type": "uint256"
        }
      ],
      "name": "increaseAllowance",
      "outputs": [
        {
          "internalType": "bool",
          "name": "",
          "type": "bool"
        }
      ],
      "stateMutability": "nonpayable",
      "type": "function"
    },
    {
      "inputs": [
        {
          "internalType": "address",
          "name": "receiver",
          "type": "address"
        },
        {
          "internalType": "uint256",
          "name": "amount",
          "type": "uint256"
        }
      ],
      "name": "mintTokens",
      "outputs": [],
      "stateMutability": "nonpayable",
      "type": "function"
    },
    {
      "inputs": [],
      "name": "name",
      "outputs": [
        {
          "internalType": "string",
          "name": "",
          "type": "string"
        }
      ],
      "stateMutability": "view",
      "type": "function"
    },
    {
      "inputs": [],
      "name": "nextProposalId",
      "outputs": [
        {
          "internalType": "uint256",
          "name": "",
          "type": "uint256"
        }
      ],
      "stateMutability": "view",
      "type": "function"
    },
    {
      "inputs": [],
      "name": "owner",
      "outputs": [
        {
          "internalType": "address",
          "name": "",
          "type": "address"
        }
      ],
      "stateMutability": "view",
      "type": "function"
    },
    {
      "inputs": [
        {
          "internalType": "address",
          "name": "",
          "type": "address"
        }
      ],
      "name": "projectManagers",
      "outputs": [
        {
          "internalType": "bool",
          "name": "",
          "type": "bool"
        }
      ],
      "stateMutability": "view",
      "type": "function"
    },
    {
      "inputs": [
        {
          "internalType": "uint256",
          "name": "",
          "type": "uint256"
        }
      ],
      "name": "projectProposals",
      "outputs": [
        {
          "internalType": "address",
          "name": "proposer",
          "type": "address"
        },
        {
          "internalType": "string",
          "name": "projectDescription",
          "type": "string"
        },
        {
          "internalType": "uint256",
          "name": "stakedAmount",
          "type": "uint256"
        },
        {
          "internalType": "bool",
          "name": "validated",
          "type": "bool"
        },
        {
          "internalType": "bool",
          "name": "deliverablesMet",
          "type": "bool"
        }
      ],
      "stateMutability": "view",
      "type": "function"
    },
    {
      "inputs": [
        {
          "internalType": "string",
          "name": "projectDescription",
          "type": "string"
        },
        {
          "internalType": "uint256",
          "name": "stakingAmount",
          "type": "uint256"
        }
      ],
      "name": "proposeProject",
      "outputs": [],
      "stateMutability": "nonpayable",
      "type": "function"
    },
    {
      "inputs": [],
      "name": "renounceOwnership",
      "outputs": [],
      "stateMutability": "nonpayable",
      "type": "function"
    },
    {
      "inputs": [
        {
          "internalType": "uint256",
          "name": "newPercentage",
          "type": "uint256"
        }
      ],
      "name": "setStakingFeePercentage",
      "outputs": [],
      "stateMutability": "nonpayable",
      "type": "function"
    },
    {
      "inputs": [],
      "name": "stakingFeePercentage",
      "outputs": [
        {
          "internalType": "uint256",
          "name": "",
          "type": "uint256"
        }
      ],
      "stateMutability": "view",
      "type": "function"
    },
    {
      "inputs": [
        {
          "internalType": "address",
          "name": "",
          "type": "address"
        },
        {
          "internalType": "uint256",
          "name": "",
          "type": "uint256"
        }
      ],
      "name": "stakingPositions",
      "outputs": [
        {
          "internalType": "address",
          "name": "staker",
          "type": "address"
        },
        {
          "internalType": "uint256",
          "name": "amount",
          "type": "uint256"
        },
        {
          "internalType": "uint256",
          "name": "startTime",
          "type": "uint256"
        },
        {
          "internalType": "uint256",
          "name": "endTime",
          "type": "uint256"
        }
      ],
      "stateMutability": "view",
      "type": "function"
    },
    {
      "inputs": [],
      "name": "symbol",
      "outputs": [
        {
          "internalType": "string",
          "name": "",
          "type": "string"
        }
      ],
      "stateMutability": "view",
      "type": "function"
    },
    {
      "inputs": [
        {
          "internalType": "uint256",
          "name": "",
          "type": "uint256"
        }
      ],
      "name": "tasks",
      "outputs": [
        {
          "internalType": "address",
          "name": "projectManager",
          "type": "address"
        },
        {
          "internalType": "string",
          "name": "taskDescription",
          "type": "string"
        },
        {
          "internalType": "uint256",
          "name": "reward",
          "type": "uint256"
        },
        {
          "internalType": "bool",
          "name": "completed",
          "type": "bool"
        },
        {
          "internalType": "address",
          "name": "volunteer",
          "type": "address"
        },
        {
          "internalType": "bool",
          "name": "authorized",
          "type": "bool"
        }
      ],
      "stateMutability": "view",
      "type": "function"
    },
    {
      "inputs": [],
      "name": "totalSupply",
      "outputs": [
        {
          "internalType": "uint256",
          "name": "",
          "type": "uint256"
        }
      ],
      "stateMutability": "view",
      "type": "function"
    },
    {
      "inputs": [
        {
          "internalType": "address",
          "name": "to",
          "type": "address"
        },
        {
          "internalType": "uint256",
          "name": "amount",
          "type": "uint256"
        }
      ],
      "name": "transfer",
      "outputs": [
        {
          "internalType": "bool",
          "name": "",
          "type": "bool"
        }
      ],
      "stateMutability": "nonpayable",
      "type": "function"
    },
    {
      "inputs": [
        {
          "internalType": "address",
          "name": "from",
          "type": "address"
        },
        {
          "internalType": "address",
          "name": "to",
          "type": "address"
        },
        {
          "internalType": "uint256",
          "name": "amount",
          "type": "uint256"
        }
      ],
      "name": "transferFrom",
      "outputs": [
        {
          "internalType": "bool",
          "name": "",
          "type": "bool"
        }
      ],
      "stateMutability": "nonpayable",
      "type": "function"
    },
    {
      "inputs": [
        {
          "internalType": "address",
          "name": "newOwner",
          "type": "address"
        }
      ],
      "name": "transferOwnership",
      "outputs": [],
      "stateMutability": "nonpayable",
      "type": "function"
    },
    {
      "inputs": [
        {
          "internalType": "uint256",
          "name": "proposalId",
          "type": "uint256"
        },
        {
          "internalType": "bool",
          "name": "deliverablesMet",
          "type": "bool"
        }
      ],
      "name": "updateProjectDeliverables",
      "outputs": [],
      "stateMutability": "nonpayable",
      "type": "function"
    },
    {
      "inputs": [
        {
          "internalType": "uint256",
          "name": "proposalId",
          "type": "uint256"
        },
        {
          "internalType": "bool",
          "name": "isValid",
          "type": "bool"
        }
      ],
      "name": "validateProposal",
      "outputs": [],
      "stateMutability": "nonpayable",
      "type": "function"
    },
    {
      "inputs": [
        {
          "internalType": "address",
          "name": "",
          "type": "address"
        }
      ],
      "name": "volunteers",
      "outputs": [
        {
          "internalType": "bool",
          "name": "",
          "type": "bool"
        }
      ],
      "stateMutability": "view",
      "type": "function"
    }
  ],
  "bytecode": "0x60806040526000600c556000600d553480156200001b57600080fd5b506040516200507b3803806200507b8339818101604052810190620000419190620004aa565b6040518060400160405280601481526020017f554e436f6c6c61626f726174696f6e20436f696e0000000000000000000000008152506040518060400160405280600381526020017f554e4300000000000000000000000000000000000000000000000000000000008152508160039081620000be919062000756565b508060049081620000d0919062000756565b505050620000f3620000e7620001fb60201b60201c565b6200020360201b60201c565b600160068190555062000118336a115eec47f6cf7e35000000620002c960201b60201c565b80600f60006101000a81548173ffffffffffffffffffffffffffffffffffffffff021916908373ffffffffffffffffffffffffffffffffffffffff1602179055506001600960003373ffffffffffffffffffffffffffffffffffffffff1673ffffffffffffffffffffffffffffffffffffffff16815260200190815260200160002060006101000a81548160ff0219169083151502179055503373ffffffffffffffffffffffffffffffffffffffff167f78fadff4dd6915f9cf72214bb7e08255d6977203cba9c7d0e779202870dce4e160405160405180910390a25062000958565b600033905090565b6000600560009054906101000a900473ffffffffffffffffffffffffffffffffffffffff16905081600560006101000a81548173ffffffffffffffffffffffffffffffffffffffff021916908373ffffffffffffffffffffffffffffffffffffffff1602179055508173ffffffffffffffffffffffffffffffffffffffff168173ffffffffffffffffffffffffffffffffffffffff167f8be0079c531659141344cd1fd0a4f28419497f9722a3daafe3b4186f6b6457e060405160405180910390a35050565b600073ffffffffffffffffffffffffffffffffffffffff168273ffffffffffffffffffffffffffffffffffffffff16036200033b576040517f08c379a000000000000000000000000000000000000000000000000000000000815260040162000332906200089e565b60405180910390fd5b6200034f600083836200043660201b60201c565b8060026000828254620003639190620008ef565b92505081905550806000808473ffffffffffffffffffffffffffffffffffffffff1673ffffffffffffffffffffffffffffffffffffffff168152602001908152602001600020600082825401925050819055508173ffffffffffffffffffffffffffffffffffffffff16600073ffffffffffffffffffffffffffffffffffffffff167fddf252ad1be2c89b69c2b068fc378daa952ba7f163c4a11628f55a4df523b3ef836040516200041691906200093b565b60405180910390a362000432600083836200043b60201b60201c565b5050565b505050565b505050565b600080fd5b600073ffffffffffffffffffffffffffffffffffffffff82169050919050565b6000620004728262000445565b9050919050565b620004848162000465565b81146200049057600080fd5b50565b600081519050620004a48162000479565b92915050565b600060208284031215620004c357620004c262000440565b5b6000620004d38482850162000493565b91505092915050565b600081519050919050565b7f4e487b7100000000000000000000000000000000000000000000000000000000600052604160045260246000fd5b7f4e487b7100000000000000000000000000000000000000000000000000000000600052602260045260246000fd5b600060028204905060018216806200055e57607f821691505b60208210810362000574576200057362000516565b5b50919050565b60008190508160005260206000209050919050565b60006020601f8301049050919050565b600082821b905092915050565b600060088302620005de7fffffffffffffffffffffffffffffffffffffffffffffffffffffffffffffffff826200059f565b620005ea86836200059f565b95508019841693508086168417925050509392505050565b6000819050919050565b6000819050919050565b600062000637620006316200062b8462000602565b6200060c565b62000602565b9050919050565b6000819050919050565b620006538362000616565b6200066b62000662826200063e565b848454620005ac565b825550505050565b600090565b6200068262000673565b6200068f81848462000648565b505050565b5b81811015620006b757620006ab60008262000678565b60018101905062000695565b5050565b601f8211156200070657620006d0816200057a565b620006db846200058f565b81016020851015620006eb578190505b62000703620006fa856200058f565b83018262000694565b50505b505050565b600082821c905092915050565b60006200072b600019846008026200070b565b1980831691505092915050565b600062000746838362000718565b9150826002028217905092915050565b6200076182620004dc565b67ffffffffffffffff8111156200077d576200077c620004e7565b5b62000789825462000545565b62000796828285620006bb565b600060209050601f831160018114620007ce5760008415620007b9578287015190505b620007c5858262000738565b86555062000835565b601f198416620007de866200057a565b60005b828110156200080857848901518255600182019150602085019450602081019050620007e1565b8683101562000828578489015162000824601f89168262000718565b8355505b6001600288020188555050505b505050505050565b600082825260208201905092915050565b7f45524332303a206d696e7420746f20746865207a65726f206164647265737300600082015250565b600062000886601f836200083d565b915062000893826200084e565b602082019050919050565b60006020820190508181036000830152620008b98162000877565b9050919050565b7f4e487b7100000000000000000000000000000000000000000000000000000000600052601160045260246000fd5b6000620008fc8262000602565b9150620009098362000602565b9250828201905080821115620009245762000923620008c0565b5b92915050565b620009358162000602565b82525050565b60006020820190506200095260008301846200092a565b92915050565b61471380620009686000396000f3fe608060405234801561001057600080fd5b50600436106102065760003560e01c80638d6d49251161011a578063c001e092116100ad578063e1e295581161007c578063e1e2955814610634578063e627989814610650578063f0dda65c14610680578063f2fde38b1461069c578063f76c5279146106b857610206565b8063c001e09214610581578063ca535c3b146105b2578063dbc1d569146105d0578063dd62ed3e1461060457610206565b806398bceccc116100e957806398bceccc146104d0578063a457c2d714610503578063a9059cbb14610533578063ba5363301461056357610206565b80638d6d4925146104415780638d9776721461045f5780638da5cb5b1461049457806395d89b41146104b257610206565b8063313ce5671161019d57806370a082311161016c57806370a08231146103b357806370d2ccd6146103e3578063715018a6146103ff5780637b13c12814610409578063890273fc1461042557610206565b8063313ce5671461031957806339509351146103375780633ca6f385146103675780636db0b8851461039757610206565b8063180acf6e116101d9578063180acf6e1461029157806318160ddd146102ad57806323b872dd146102cb5780632ab09d14146102fb57610206565b806306fdde031461020b578063095ea7b3146102295780630c16d408146102595780631394f21614610275575b600080fd5b6102136106d4565b6040516102209190612b53565b60405180910390f35b610243600480360381019061023e9190612c1d565b610766565b6040516102509190612c78565b60405180910390f35b610273600480360381019061026e9190612dc8565b610789565b005b61028f600480360381019061028a9190612e24565b610a33565b005b6102ab60048036038101906102a69190612e51565b610b5d565b005b6102b5610bf7565b6040516102c29190612e8d565b60405180910390f35b6102e560048036038101906102e09190612ea8565b610c01565b6040516102f29190612c78565b60405180910390f35b610303610c30565b6040516103109190612e8d565b60405180910390f35b610321610c36565b60405161032e9190612f17565b60405180910390f35b610351600480360381019061034c9190612c1d565b610c3f565b60405161035e9190612c78565b60405180910390f35b610381600480360381019061037c9190612e24565b610c76565b60405161038e9190612c78565b60405180910390f35b6103b160048036038101906103ac9190612f5e565b610c96565b005b6103cd60048036038101906103c89190612e24565b610ea6565b6040516103da9190612e8d565b60405180910390f35b6103fd60048036038101906103f89190612f9e565b610eee565b005b610407611157565b005b610423600480360381019061041e919061300d565b61116b565b005b61043f600480360381019061043a9190612e24565b61134e565b005b610449611508565b60405161045691906130ef565b60405180910390f35b61047960048036038101906104749190612e51565b61152e565b60405161048b96959493929190613119565b60405180910390f35b61049c61165c565b6040516104a99190613181565b60405180910390f35b6104ba611686565b6040516104c79190612b53565b60405180910390f35b6104ea60048036038101906104e59190612c1d565b611718565b6040516104fa949392919061319c565b60405180910390f35b61051d60048036038101906105189190612c1d565b611785565b60405161052a9190612c78565b60405180910390f35b61054d60048036038101906105489190612c1d565b6117fc565b60405161055a9190612c78565b60405180910390f35b61056b61181f565b6040516105789190612e8d565b60405180910390f35b61059b600480360381019061059691906131e1565b61182e565b6040516105a9929190613221565b60405180910390f35b6105ba611a5a565b6040516105c79190612e8d565b60405180910390f35b6105ea60048036038101906105e59190612e51565b611a60565b6040516105fb959493929190613251565b60405180910390f35b61061e600480360381019061061991906131e1565b611b58565b60405161062b9190612e8d565b60405180910390f35b61064e60048036038101906106499190612e51565b611bdf565b005b61066a60048036038101906106659190612e24565b611dca565b6040516106779190612c78565b60405180910390f35b61069a60048036038101906106959190612c1d565b611dea565b005b6106b660048036038101906106b19190612e24565b611f39565b005b6106d260048036038101906106cd9190612f5e565b611fbc565b005b6060600380546106e3906132da565b80601f016020809104026020016040519081016040528092919081815260200182805461070f906132da565b801561075c5780601f106107315761010080835404028352916020019161075c565b820191906000526020600020905b81548152906001019060200180831161073f57829003601f168201915b5050505050905090565b600080610771612110565b905061077e818585612118565b600191505092915050565b6107916122e1565b600860003373ffffffffffffffffffffffffffffffffffffffff1673ffffffffffffffffffffffffffffffffffffffff16815260200190815260200160002060009054906101000a900460ff1661081d576040517f08c379a00000000000000000000000000000000000000000000000000000000081526004016108149061337d565b60405180910390fd5b60008111610860576040517f08c379a00000000000000000000000000000000000000000000000000000000081526004016108579061340f565b60405180910390fd5b8061086a33610ea6565b10156108ab576040517f08c379a00000000000000000000000000000000000000000000000000000000081526004016108a29061347b565b60405180910390fd5b6108b530826117fc565b506000600d5490506040518060a001604052803373ffffffffffffffffffffffffffffffffffffffff16815260200184815260200183815260200160001515815260200160001515815250600b600083815260200190815260200160002060008201518160000160006101000a81548173ffffffffffffffffffffffffffffffffffffffff021916908373ffffffffffffffffffffffffffffffffffffffff160217905550602082015181600101908161096f919061363d565b506040820151816002015560608201518160030160006101000a81548160ff02191690831515021790555060808201518160030160016101000a81548160ff021916908315150217905550905050600d60008154809291906109d09061373e565b91905055503373ffffffffffffffffffffffffffffffffffffffff16817fc97ad58e89bafa99b163ec269223d525c79fbfaf86962327ef9231217a9cac4b8585604051610a1e929190613221565b60405180910390a350610a2f612330565b5050565b600960003373ffffffffffffffffffffffffffffffffffffffff1673ffffffffffffffffffffffffffffffffffffffff16815260200190815260200160002060009054906101000a900460ff16610abf576040517f08c379a0000000000000000000000000000000000000000000000000000000008152600401610ab6906137f8565b60405180910390fd5b6001600960008373ffffffffffffffffffffffffffffffffffffffff1673ffffffffffffffffffffffffffffffffffffffff16815260200190815260200160002060006101000a81548160ff0219169083151502179055508073ffffffffffffffffffffffffffffffffffffffff167f78fadff4dd6915f9cf72214bb7e08255d6977203cba9c7d0e779202870dce4e160405160405180910390a250565b610b6561233a565b60008110158015610b77575060648111155b610bb6576040517f08c379a0000000000000000000000000000000000000000000000000000000008152600401610bad90613864565b60405180910390fd5b80600c819055507f32a80662a42e8c8b641bbbbaa1b46c4e09b17feba9ad878369e3aa564aca72f881604051610bec9190612e8d565b60405180910390a150565b6000600254905090565b600080610c0c612110565b9050610c198582856123b8565b610c24858585612444565b60019150509392505050565b600d5481565b60006012905090565b600080610c4a612110565b9050610c6b818585610c5c8589611b58565b610c669190613884565b612118565b600191505092915050565b60096020528060005260406000206000915054906101000a900460ff1681565b600960003373ffffffffffffffffffffffffffffffffffffffff1673ffffffffffffffffffffffffffffffffffffffff16815260200190815260200160002060009054906101000a900460ff16610d22576040517f08c379a0000000000000000000000000000000000000000000000000000000008152600401610d199061392a565b60405180910390fd5b6000600b600084815260200190815260200160002090508060030160009054906101000a900460ff16610d8a576040517f08c379a0000000000000000000000000000000000000000000000000000000008152600401610d81906139bc565b60405180910390fd5b818160030160016101000a81548160ff021916908315150217905550827f9cda5f5e1c42c3931f282fe9c1b300ca7e3948bcec7557886b36aca3312c5a4383604051610dd69190612c78565b60405180910390a281610e6d57610df13082600201546126ba565b8060000160009054906101000a900473ffffffffffffffffffffffffffffffffffffffff1673ffffffffffffffffffffffffffffffffffffffff16837fa8c5218c4888faf8cb49e646c200737680b42893becc2352cdbe2c7a9bdbd8508360020154604051610e609190612e8d565b60405180910390a3610ea1565b610e9f8160000160009054906101000a900473ffffffffffffffffffffffffffffffffffffffff1682600201546117fc565b505b505050565b60008060008373ffffffffffffffffffffffffffffffffffffffff1673ffffffffffffffffffffffffffffffffffffffff168152602001908152602001600020549050919050565b600960003373ffffffffffffffffffffffffffffffffffffffff1673ffffffffffffffffffffffffffffffffffffffff16815260200190815260200160002060009054906101000a900460ff16610f7a576040517f08c379a0000000000000000000000000000000000000000000000000000000008152600401610f7190613a4e565b60405180910390fd5b6000600e805490509050600e6040518060c001604052803373ffffffffffffffffffffffffffffffffffffffff1681526020018681526020018581526020016000151581526020018473ffffffffffffffffffffffffffffffffffffffff16815260200160001515815250908060018154018082558091505060019003906000526020600020906004020160009091909190915060008201518160000160006101000a81548173ffffffffffffffffffffffffffffffffffffffff021916908373ffffffffffffffffffffffffffffffffffffffff160217905550602082015181600101908161106a919061363d565b506040820151816002015560608201518160030160006101000a81548160ff02191690831515021790555060808201518160030160016101000a81548173ffffffffffffffffffffffffffffffffffffffff021916908373ffffffffffffffffffffffffffffffffffffffff16021790555060a08201518160030160156101000a81548160ff02191690831515021790555050503373ffffffffffffffffffffffffffffffffffffffff16817fa412f9cf569f417e8bd00b013c6259a4e9acd7d0dacfd94cead726df237efa1e86868660405161114993929190613a6e565b60405180910390a350505050565b61115f61233a565b6111696000612887565b565b600960003373ffffffffffffffffffffffffffffffffffffffff1673ffffffffffffffffffffffffffffffffffffffff16815260200190815260200160002060009054906101000a900460ff166111f7576040517f08c379a00000000000000000000000000000000000000000000000000000000081526004016111ee90613b1e565b60405180910390fd5b6000600760008673ffffffffffffffffffffffffffffffffffffffff1673ffffffffffffffffffffffffffffffffffffffff16815260200190815260200160002090506040518060400160405280848152602001838152508160010160003373ffffffffffffffffffffffffffffffffffffffff1673ffffffffffffffffffffffffffffffffffffffff16815260200190815260200160002060008201518160000190816112a5919061363d565b5060208201518160010155905050600f60009054906101000a900473ffffffffffffffffffffffffffffffffffffffff1673ffffffffffffffffffffffffffffffffffffffff1663a647e8ec86868560006040518563ffffffff1660e01b81526004016113159493929190613b79565b600060405180830381600087803b15801561132f57600080fd5b505af1158015611343573d6000803e3d6000fd5b505050505050505050565b600960003373ffffffffffffffffffffffffffffffffffffffff1673ffffffffffffffffffffffffffffffffffffffff16815260200190815260200160002060009054906101000a900460ff166113da576040517f08c379a00000000000000000000000000000000000000000000000000000000081526004016113d190613c30565b60405180910390fd5b6001600860008373ffffffffffffffffffffffffffffffffffffffff1673ffffffffffffffffffffffffffffffffffffffff16815260200190815260200160002060006101000a81548160ff0219169083151502179055506000600760008373ffffffffffffffffffffffffffffffffffffffff1673ffffffffffffffffffffffffffffffffffffffff168152602001908152602001600020600001819055506000600760008373ffffffffffffffffffffffffffffffffffffffff1673ffffffffffffffffffffffffffffffffffffffff168152602001908152602001600020600201819055508073ffffffffffffffffffffffffffffffffffffffff167f8a76eb268577bfb7e15df1151cfd0378609db465997555857ef4fcd3ede4c1f160405160405180910390a250565b600f60009054906101000a900473ffffffffffffffffffffffffffffffffffffffff1681565b600e818154811061153e57600080fd5b90600052602060002090600402016000915090508060000160009054906101000a900473ffffffffffffffffffffffffffffffffffffffff1690806001018054611587906132da565b80601f01602080910402602001604051908101604052809291908181526020018280546115b3906132da565b80156116005780601f106115d557610100808354040283529160200191611600565b820191906000526020600020905b8154815290600101906020018083116115e357829003601f168201915b5050505050908060020154908060030160009054906101000a900460ff16908060030160019054906101000a900473ffffffffffffffffffffffffffffffffffffffff16908060030160159054906101000a900460ff16905086565b6000600560009054906101000a900473ffffffffffffffffffffffffffffffffffffffff16905090565b606060048054611695906132da565b80601f01602080910402602001604051908101604052809291908181526020018280546116c1906132da565b801561170e5780601f106116e35761010080835404028352916020019161170e565b820191906000526020600020905b8154815290600101906020018083116116f157829003601f168201915b5050505050905090565b600a602052816000526040600020818154811061173457600080fd5b9060005260206000209060040201600091509150508060000160009054906101000a900473ffffffffffffffffffffffffffffffffffffffff16908060010154908060020154908060030154905084565b600080611790612110565b9050600061179e8286611b58565b9050838110156117e3576040517f08c379a00000000000000000000000000000000000000000000000000000000081526004016117da90613cc2565b60405180910390fd5b6117f08286868403612118565b60019250505092915050565b600080611807612110565b9050611814818585612444565b600191505092915050565b6a115eec47f6cf7e3500000081565b60606000600960008473ffffffffffffffffffffffffffffffffffffffff1673ffffffffffffffffffffffffffffffffffffffff16815260200190815260200160002060009054906101000a900460ff166118be576040517f08c379a00000000000000000000000000000000000000000000000000000000081526004016118b590613d2e565b60405180910390fd5b600760008573ffffffffffffffffffffffffffffffffffffffff1673ffffffffffffffffffffffffffffffffffffffff16815260200190815260200160002060010160008473ffffffffffffffffffffffffffffffffffffffff1673ffffffffffffffffffffffffffffffffffffffff168152602001908152602001600020600001600760008673ffffffffffffffffffffffffffffffffffffffff1673ffffffffffffffffffffffffffffffffffffffff16815260200190815260200160002060010160008573ffffffffffffffffffffffffffffffffffffffff1673ffffffffffffffffffffffffffffffffffffffff168152602001908152602001600020600101548180546119cf906132da565b80601f01602080910402602001604051908101604052809291908181526020018280546119fb906132da565b8015611a485780601f10611a1d57610100808354040283529160200191611a48565b820191906000526020600020905b815481529060010190602001808311611a2b57829003601f168201915b50505050509150915091509250929050565b600c5481565b600b6020528060005260406000206000915090508060000160009054906101000a900473ffffffffffffffffffffffffffffffffffffffff1690806001018054611aa9906132da565b80601f0160208091040260200160405190810160405280929190818152602001828054611ad5906132da565b8015611b225780601f10611af757610100808354040283529160200191611b22565b820191906000526020600020905b815481529060010190602001808311611b0557829003601f168201915b5050505050908060020154908060030160009054906101000a900460ff16908060030160019054906101000a900460ff16905085565b6000600160008473ffffffffffffffffffffffffffffffffffffffff1673ffffffffffffffffffffffffffffffffffffffff16815260200190815260200160002060008373ffffffffffffffffffffffffffffffffffffffff1673ffffffffffffffffffffffffffffffffffffffff16815260200190815260200160002054905092915050565b6000600e8281548110611bf557611bf4613d4e565b5b906000526020600020906004020190503373ffffffffffffffffffffffffffffffffffffffff168160030160019054906101000a900473ffffffffffffffffffffffffffffffffffffffff1673ffffffffffffffffffffffffffffffffffffffff1614611c97576040517f08c379a0000000000000000000000000000000000000000000000000000000008152600401611c8e90613def565b60405180910390fd5b600015158160030160009054906101000a900460ff16151514611cef576040517f08c379a0000000000000000000000000000000000000000000000000000000008152600401611ce690613e5b565b60405180910390fd5b60018160030160006101000a81548160ff0219169083151502179055506000600760003373ffffffffffffffffffffffffffffffffffffffff1673ffffffffffffffffffffffffffffffffffffffff1681526020019081526020016000209050611d6a8260020154826000015461294d90919063ffffffff16565b81600001819055503373ffffffffffffffffffffffffffffffffffffffff16837f843af93d40addceac6932508439844b897d4df9e971db326d557e3cdaa9f3ebf8460020154604051611dbd9190612e8d565b60405180910390a3505050565b60086020528060005260406000206000915054906101000a900460ff1681565b600960003373ffffffffffffffffffffffffffffffffffffffff1673ffffffffffffffffffffffffffffffffffffffff16815260200190815260200160002060009054906101000a900460ff16611e76576040517f08c379a0000000000000000000000000000000000000000000000000000000008152600401611e6d90613eed565b60405180910390fd5b6a115eec47f6cf7e35000000611e9c82611e8e610bf7565b61294d90919063ffffffff16565b1115611edd576040517f08c379a0000000000000000000000000000000000000000000000000000000008152600401611ed490613f7f565b60405180910390fd5b611ee78282612963565b8173ffffffffffffffffffffffffffffffffffffffff167f3f2c9d57c068687834f0de942a9babb9e5acab57d516d3480a3c16ee165a427382604051611f2d9190612e8d565b60405180910390a25050565b611f4161233a565b600073ffffffffffffffffffffffffffffffffffffffff168173ffffffffffffffffffffffffffffffffffffffff1603611fb0576040517f08c379a0000000000000000000000000000000000000000000000000000000008152600401611fa790614011565b60405180910390fd5b611fb981612887565b50565b600960003373ffffffffffffffffffffffffffffffffffffffff1673ffffffffffffffffffffffffffffffffffffffff16815260200190815260200160002060009054906101000a900460ff16612048576040517f08c379a000000000000000000000000000000000000000000000000000000000815260040161203f906140a3565b60405180910390fd5b6000600b60008481526020019081526020016000209050600015158160030160009054906101000a900460ff161515146120b7576040517f08c379a00000000000000000000000000000000000000000000000000000000081526004016120ae9061410f565b60405180910390fd5b818160030160006101000a81548160ff021916908315150217905550827f834b15fc22ef38f6369b26611438cf75325615c41b839147963b157e7205133d836040516121039190612c78565b60405180910390a2505050565b600033905090565b600073ffffffffffffffffffffffffffffffffffffffff168373ffffffffffffffffffffffffffffffffffffffff1603612187576040517f08c379a000000000000000000000000000000000000000000000000000000000815260040161217e906141a1565b60405180910390fd5b600073ffffffffffffffffffffffffffffffffffffffff168273ffffffffffffffffffffffffffffffffffffffff16036121f6576040517f08c379a00000000000000000000000000000000000000000000000000000000081526004016121ed90614233565b60405180910390fd5b80600160008573ffffffffffffffffffffffffffffffffffffffff1673ffffffffffffffffffffffffffffffffffffffff16815260200190815260200160002060008473ffffffffffffffffffffffffffffffffffffffff1673ffffffffffffffffffffffffffffffffffffffff168152602001908152602001600020819055508173ffffffffffffffffffffffffffffffffffffffff168373ffffffffffffffffffffffffffffffffffffffff167f8c5be1e5ebec7d5bd14f71427d1e84f3dd0314c0f7b2291e5b200ac8c7c3b925836040516122d49190612e8d565b60405180910390a3505050565b600260065403612326576040517f08c379a000000000000000000000000000000000000000000000000000000000815260040161231d9061429f565b60405180910390fd5b6002600681905550565b6001600681905550565b612342612110565b73ffffffffffffffffffffffffffffffffffffffff1661236061165c565b73ffffffffffffffffffffffffffffffffffffffff16146123b6576040517f08c379a00000000000000000000000000000000000000000000000000000000081526004016123ad9061430b565b60405180910390fd5b565b60006123c48484611b58565b90507fffffffffffffffffffffffffffffffffffffffffffffffffffffffffffffffff811461243e5781811015612430576040517f08c379a000000000000000000000000000000000000000000000000000000000815260040161242790614377565b60405180910390fd5b61243d8484848403612118565b5b50505050565b600073ffffffffffffffffffffffffffffffffffffffff168373ffffffffffffffffffffffffffffffffffffffff16036124b3576040517f08c379a00000000000000000000000000000000000000000000000000000000081526004016124aa90614409565b60405180910390fd5b600073ffffffffffffffffffffffffffffffffffffffff168273ffffffffffffffffffffffffffffffffffffffff1603612522576040517f08c379a00000000000000000000000000000000000000000000000000000000081526004016125199061449b565b60405180910390fd5b61252d838383612ab9565b60008060008573ffffffffffffffffffffffffffffffffffffffff1673ffffffffffffffffffffffffffffffffffffffff168152602001908152602001600020549050818110156125b3576040517f08c379a00000000000000000000000000000000000000000000000000000000081526004016125aa9061452d565b60405180910390fd5b8181036000808673ffffffffffffffffffffffffffffffffffffffff1673ffffffffffffffffffffffffffffffffffffffff16815260200190815260200160002081905550816000808573ffffffffffffffffffffffffffffffffffffffff1673ffffffffffffffffffffffffffffffffffffffff168152602001908152602001600020600082825401925050819055508273ffffffffffffffffffffffffffffffffffffffff168473ffffffffffffffffffffffffffffffffffffffff167fddf252ad1be2c89b69c2b068fc378daa952ba7f163c4a11628f55a4df523b3ef846040516126a19190612e8d565b60405180910390a36126b4848484612abe565b50505050565b600073ffffffffffffffffffffffffffffffffffffffff168273ffffffffffffffffffffffffffffffffffffffff1603612729576040517f08c379a0000000000000000000000000000000000000000000000000000000008152600401612720906145bf565b60405180910390fd5b61273582600083612ab9565b60008060008473ffffffffffffffffffffffffffffffffffffffff1673ffffffffffffffffffffffffffffffffffffffff168152602001908152602001600020549050818110156127bb576040517f08c379a00000000000000000000000000000000000000000000000000000000081526004016127b290614651565b60405180910390fd5b8181036000808573ffffffffffffffffffffffffffffffffffffffff1673ffffffffffffffffffffffffffffffffffffffff1681526020019081526020016000208190555081600260008282540392505081905550600073ffffffffffffffffffffffffffffffffffffffff168373ffffffffffffffffffffffffffffffffffffffff167fddf252ad1be2c89b69c2b068fc378daa952ba7f163c4a11628f55a4df523b3ef8460405161286e9190612e8d565b60405180910390a361288283600084612abe565b505050565b6000600560009054906101000a900473ffffffffffffffffffffffffffffffffffffffff16905081600560006101000a81548173ffffffffffffffffffffffffffffffffffffffff021916908373ffffffffffffffffffffffffffffffffffffffff1602179055508173ffffffffffffffffffffffffffffffffffffffff168173ffffffffffffffffffffffffffffffffffffffff167f8be0079c531659141344cd1fd0a4f28419497f9722a3daafe3b4186f6b6457e060405160405180910390a35050565b6000818361295b9190613884565b905092915050565b600073ffffffffffffffffffffffffffffffffffffffff168273ffffffffffffffffffffffffffffffffffffffff16036129d2576040517f08c379a00000000000000000000000000000000000000000000000000000000081526004016129c9906146bd565b60405180910390fd5b6129de60008383612ab9565b80600260008282546129f09190613884565b92505081905550806000808473ffffffffffffffffffffffffffffffffffffffff1673ffffffffffffffffffffffffffffffffffffffff168152602001908152602001600020600082825401925050819055508173ffffffffffffffffffffffffffffffffffffffff16600073ffffffffffffffffffffffffffffffffffffffff167fddf252ad1be2c89b69c2b068fc378daa952ba7f163c4a11628f55a4df523b3ef83604051612aa19190612e8d565b60405180910390a3612ab560008383612abe565b5050565b505050565b505050565b600081519050919050565b600082825260208201905092915050565b60005b83811015612afd578082015181840152602081019050612ae2565b60008484015250505050565b6000601f19601f8301169050919050565b6000612b2582612ac3565b612b2f8185612ace565b9350612b3f818560208601612adf565b612b4881612b09565b840191505092915050565b60006020820190508181036000830152612b6d8184612b1a565b905092915050565b6000604051905090565b600080fd5b600080fd5b600073ffffffffffffffffffffffffffffffffffffffff82169050919050565b6000612bb482612b89565b9050919050565b612bc481612ba9565b8114612bcf57600080fd5b50565b600081359050612be181612bbb565b92915050565b6000819050919050565b612bfa81612be7565b8114612c0557600080fd5b50565b600081359050612c1781612bf1565b92915050565b60008060408385031215612c3457612c33612b7f565b5b6000612c4285828601612bd2565b9250506020612c5385828601612c08565b9150509250929050565b60008115159050919050565b612c7281612c5d565b82525050565b6000602082019050612c8d6000830184612c69565b92915050565b600080fd5b600080fd5b7f4e487b7100000000000000000000000000000000000000000000000000000000600052604160045260246000fd5b612cd582612b09565b810181811067ffffffffffffffff82111715612cf457612cf3612c9d565b5b80604052505050565b6000612d07612b75565b9050612d138282612ccc565b919050565b600067ffffffffffffffff821115612d3357612d32612c9d565b5b612d3c82612b09565b9050602081019050919050565b82818337600083830152505050565b6000612d6b612d6684612d18565b612cfd565b905082815260208101848484011115612d8757612d86612c98565b5b612d92848285612d49565b509392505050565b600082601f830112612daf57612dae612c93565b5b8135612dbf848260208601612d58565b91505092915050565b60008060408385031215612ddf57612dde612b7f565b5b600083013567ffffffffffffffff811115612dfd57612dfc612b84565b5b612e0985828601612d9a565b9250506020612e1a85828601612c08565b9150509250929050565b600060208284031215612e3a57612e39612b7f565b5b6000612e4884828501612bd2565b91505092915050565b600060208284031215612e6757612e66612b7f565b5b6000612e7584828501612c08565b91505092915050565b612e8781612be7565b82525050565b6000602082019050612ea26000830184612e7e565b92915050565b600080600060608486031215612ec157612ec0612b7f565b5b6000612ecf86828701612bd2565b9350506020612ee086828701612bd2565b9250506040612ef186828701612c08565b9150509250925092565b600060ff82169050919050565b612f1181612efb565b82525050565b6000602082019050612f2c6000830184612f08565b92915050565b612f3b81612c5d565b8114612f4657600080fd5b50565b600081359050612f5881612f32565b92915050565b60008060408385031215612f7557612f74612b7f565b5b6000612f8385828601612c08565b9250506020612f9485828601612f49565b9150509250929050565b600080600060608486031215612fb757612fb6612b7f565b5b600084013567ffffffffffffffff811115612fd557612fd4612b84565b5b612fe186828701612d9a565b9350506020612ff286828701612c08565b925050604061300386828701612bd2565b9150509250925092565b6000806000806080858703121561302757613026612b7f565b5b600061303587828801612bd2565b945050602061304687828801612c08565b935050604085013567ffffffffffffffff81111561306757613066612b84565b5b61307387828801612d9a565b925050606061308487828801612c08565b91505092959194509250565b6000819050919050565b60006130b56130b06130ab84612b89565b613090565b612b89565b9050919050565b60006130c78261309a565b9050919050565b60006130d9826130bc565b9050919050565b6130e9816130ce565b82525050565b600060208201905061310460008301846130e0565b92915050565b61311381612ba9565b82525050565b600060c08201905061312e600083018961310a565b81810360208301526131408188612b1a565b905061314f6040830187612e7e565b61315c6060830186612c69565b613169608083018561310a565b61317660a0830184612c69565b979650505050505050565b6000602082019050613196600083018461310a565b92915050565b60006080820190506131b1600083018761310a565b6131be6020830186612e7e565b6131cb6040830185612e7e565b6131d86060830184612e7e565b95945050505050565b600080604083850312156131f8576131f7612b7f565b5b600061320685828601612bd2565b925050602061321785828601612bd2565b9150509250929050565b6000604082019050818103600083015261323b8185612b1a565b905061324a6020830184612e7e565b9392505050565b600060a082019050613266600083018861310a565b81810360208301526132788187612b1a565b90506132876040830186612e7e565b6132946060830185612c69565b6132a16080830184612c69565b9695505050505050565b7f4e487b7100000000000000000000000000000000000000000000000000000000600052602260045260246000fd5b600060028204905060018216806132f257607f821691505b602082108103613305576133046132ab565b5b50919050565b7f4f6e6c7920766f6c756e74656572732063616e2070726f706f73652070726f6a60008201527f6563747300000000000000000000000000000000000000000000000000000000602082015250565b6000613367602483612ace565b91506133728261330b565b604082019050919050565b600060208201905081810360008301526133968161335a565b9050919050565b7f5374616b696e6720616d6f756e74206d7573742062652067726561746572207460008201527f68616e2030000000000000000000000000000000000000000000000000000000602082015250565b60006133f9602583612ace565b91506134048261339d565b604082019050919050565b60006020820190508181036000830152613428816133ec565b9050919050565b7f496e73756666696369656e742062616c616e6365000000000000000000000000600082015250565b6000613465601483612ace565b91506134708261342f565b602082019050919050565b6000602082019050818103600083015261349481613458565b9050919050565b60008190508160005260206000209050919050565b60006020601f8301049050919050565b600082821b905092915050565b6000600883026134fd7fffffffffffffffffffffffffffffffffffffffffffffffffffffffffffffffff826134c0565b61350786836134c0565b95508019841693508086168417925050509392505050565b600061353a61353561353084612be7565b613090565b612be7565b9050919050565b6000819050919050565b6135548361351f565b61356861356082613541565b8484546134cd565b825550505050565b600090565b61357d613570565b61358881848461354b565b505050565b5b818110156135ac576135a1600082613575565b60018101905061358e565b5050565b601f8211156135f1576135c28161349b565b6135cb846134b0565b810160208510156135da578190505b6135ee6135e6856134b0565b83018261358d565b50505b505050565b600082821c905092915050565b6000613614600019846008026135f6565b1980831691505092915050565b600061362d8383613603565b9150826002028217905092915050565b61364682612ac3565b67ffffffffffffffff81111561365f5761365e612c9d565b5b61366982546132da565b6136748282856135b0565b600060209050601f8311600181146136a75760008415613695578287015190505b61369f8582613621565b865550613707565b601f1984166136b58661349b565b60005b828110156136dd578489015182556001820191506020850194506020810190506136b8565b868310156136fa57848901516136f6601f891682613603565b8355505b6001600288020188555050505b505050505050565b7f4e487b7100000000000000000000000000000000000000000000000000000000600052601160045260246000fd5b600061374982612be7565b91507fffffffffffffffffffffffffffffffffffffffffffffffffffffffffffffffff820361377b5761377a61370f565b5b600182019050919050565b7f4f6e6c79206578697374696e672070726f6a656374206d616e6167657273206360008201527f616e20616464206e65772070726f6a656374206d616e61676572730000000000602082015250565b60006137e2603b83612ace565b91506137ed82613786565b604082019050919050565b60006020820190508181036000830152613811816137d5565b9050919050565b7f496e76616c6964207374616b696e67206665652070657263656e746167650000600082015250565b600061384e601e83612ace565b915061385982613818565b602082019050919050565b6000602082019050818103600083015261387d81613841565b9050919050565b600061388f82612be7565b915061389a83612be7565b92508282019050808211156138b2576138b161370f565b5b92915050565b7f4f6e6c792070726f6a656374206d616e61676572732063616e2075706461746560008201527f2070726f6a6563742064656c6976657261626c65730000000000000000000000602082015250565b6000613914603583612ace565b915061391f826138b8565b604082019050919050565b6000602082019050818103600083015261394381613907565b9050919050565b7f50726f706f73616c206d7573742062652076616c696461746564206265666f7260008201527f65207570646174696e672064656c6976657261626c6573000000000000000000602082015250565b60006139a6603783612ace565b91506139b18261394a565b604082019050919050565b600060208201905081810360008301526139d581613999565b9050919050565b7f4f6e6c792070726f6a656374206d616e61676572732063616e2061646420746160008201527f736b730000000000000000000000000000000000000000000000000000000000602082015250565b6000613a38602383612ace565b9150613a43826139dc565b604082019050919050565b60006020820190508181036000830152613a6781613a2b565b9050919050565b60006060820190508181036000830152613a888186612b1a565b9050613a976020830185612e7e565b613aa4604083018461310a565b949350505050565b7f4f6e6c792070726f6a656374206d616e61676572732063616e2061776172642060008201527f6261646765730000000000000000000000000000000000000000000000000000602082015250565b6000613b08602683612ace565b9150613b1382613aac565b604082019050919050565b60006020820190508181036000830152613b3781613afb565b9050919050565b6000819050919050565b6000613b63613b5e613b5984613b3e565b613090565b612be7565b9050919050565b613b7381613b48565b82525050565b6000608082019050613b8e600083018761310a565b613b9b6020830186612e7e565b613ba86040830185612e7e565b613bb56060830184613b6a565b95945050505050565b7f4f6e6c792070726f6a656374206d616e61676572732063616e2061646420766f60008201527f6c756e7465657273000000000000000000000000000000000000000000000000602082015250565b6000613c1a602883612ace565b9150613c2582613bbe565b604082019050919050565b60006020820190508181036000830152613c4981613c0d565b9050919050565b7f45524332303a2064656372656173656420616c6c6f77616e63652062656c6f7760008201527f207a65726f000000000000000000000000000000000000000000000000000000602082015250565b6000613cac602583612ace565b9150613cb782613c50565b604082019050919050565b60006020820190508181036000830152613cdb81613c9f565b9050919050565b7f496e76616c69642070726f6a656374206d616e61676572206164647265737300600082015250565b6000613d18601f83612ace565b9150613d2382613ce2565b602082019050919050565b60006020820190508181036000830152613d4781613d0b565b9050919050565b7f4e487b7100000000000000000000000000000000000000000000000000000000600052603260045260246000fd5b7f4f6e6c79207468652061737369676e656420766f6c756e746565722063616e2060008201527f636f6d706c65746520746865207461736b000000000000000000000000000000602082015250565b6000613dd9603183612ace565b9150613de482613d7d565b604082019050919050565b60006020820190508181036000830152613e0881613dcc565b9050919050565b7f5461736b20697320616c726561647920636f6d706c6574656400000000000000600082015250565b6000613e45601983612ace565b9150613e5082613e0f565b602082019050919050565b60006020820190508181036000830152613e7481613e38565b9050919050565b7f4f6e6c792070726f6a656374206d616e61676572732063616e206d696e74207460008201527f6f6b656e73000000000000000000000000000000000000000000000000000000602082015250565b6000613ed7602583612ace565b9150613ee282613e7b565b604082019050919050565b60006020820190508181036000830152613f0681613eca565b9050919050565b7f4d696e74696e6720776f756c642065786365656420746f74616c20737570706c60008201527f7900000000000000000000000000000000000000000000000000000000000000602082015250565b6000613f69602183612ace565b9150613f7482613f0d565b604082019050919050565b60006020820190508181036000830152613f9881613f5c565b9050919050565b7f4f776e61626c653a206e6577206f776e657220697320746865207a65726f206160008201527f6464726573730000000000000000000000000000000000000000000000000000602082015250565b6000613ffb602683612ace565b915061400682613f9f565b604082019050919050565b6000602082019050818103600083015261402a81613fee565b9050919050565b7f4f6e6c792070726f6a656374206d616e61676572732063616e2076616c69646160008201527f74652070726f706f73616c730000000000000000000000000000000000000000602082015250565b600061408d602c83612ace565b915061409882614031565b604082019050919050565b600060208201905081810360008301526140bc81614080565b9050919050565b7f50726f706f73616c20697320616c72656164792076616c696461746564000000600082015250565b60006140f9601d83612ace565b9150614104826140c3565b602082019050919050565b60006020820190508181036000830152614128816140ec565b9050919050565b7f45524332303a20617070726f76652066726f6d20746865207a65726f2061646460008201527f7265737300000000000000000000000000000000000000000000000000000000602082015250565b600061418b602483612ace565b91506141968261412f565b604082019050919050565b600060208201905081810360008301526141ba8161417e565b9050919050565b7f45524332303a20617070726f766520746f20746865207a65726f20616464726560008201527f7373000000000000000000000000000000000000000000000000000000000000602082015250565b600061421d602283612ace565b9150614228826141c1565b604082019050919050565b6000602082019050818103600083015261424c81614210565b9050919050565b7f5265656e7472616e637947756172643a207265656e7472616e742063616c6c00600082015250565b6000614289601f83612ace565b915061429482614253565b602082019050919050565b600060208201905081810360008301526142b88161427c565b9050919050565b7f4f776e61626c653a2063616c6c6572206973206e6f7420746865206f776e6572600082015250565b60006142f5602083612ace565b9150614300826142bf565b602082019050919050565b60006020820190508181036000830152614324816142e8565b9050919050565b7f45524332303a20696e73756666696369656e7420616c6c6f77616e6365000000600082015250565b6000614361601d83612ace565b915061436c8261432b565b602082019050919050565b6000602082019050818103600083015261439081614354565b9050919050565b7f45524332303a207472616e736665722066726f6d20746865207a65726f20616460008201527f6472657373000000000000000000000000000000000000000000000000000000602082015250565b60006143f3602583612ace565b91506143fe82614397565b604082019050919050565b60006020820190508181036000830152614422816143e6565b9050919050565b7f45524332303a207472616e7366657220746f20746865207a65726f206164647260008201527f6573730000000000000000000000000000000000000000000000000000000000602082015250565b6000614485602383612ace565b915061449082614429565b604082019050919050565b600060208201905081810360008301526144b481614478565b9050919050565b7f45524332303a207472616e7366657220616d6f756e742065786365656473206260008201527f616c616e63650000000000000000000000000000000000000000000000000000602082015250565b6000614517602683612ace565b9150614522826144bb565b604082019050919050565b600060208201905081810360008301526145468161450a565b9050919050565b7f45524332303a206275726e2066726f6d20746865207a65726f2061646472657360008201527f7300000000000000000000000000000000000000000000000000000000000000602082015250565b60006145a9602183612ace565b91506145b48261454d565b604082019050919050565b600060208201905081810360008301526145d88161459c565b9050919050565b7f45524332303a206275726e20616d6f756e7420657863656564732062616c616e60008201527f6365000000000000000000000000000000000000000000000000000000000000602082015250565b600061463b602283612ace565b9150614646826145df565b604082019050919050565b6000602082019050818103600083015261466a8161462e565b9050919050565b7f45524332303a206d696e7420746f20746865207a65726f206164647265737300600082015250565b60006146a7601f83612ace565b91506146b282614671565b602082019050919050565b600060208201905081810360008301526146d68161469a565b905091905056fea2646970667358221220c50557376ce3a6061bb4e5d67ff50605f8b9221cd7bd0c4ded0008445574831264736f6c63430008110033",
  "linkReferences": {},
  "deployedLinkReferences": {}
}